:020000040800F2
:1000000000280020E5180008F9150008FF15000871
:10001000051600080B160008111600080000000065
:10002000000000000000000000000000171600089B
:1000300023160008000000002F1600083B160008D9
:100040002D1900082D1900082D1900082D19000878
:100050002D1900082D1900082D1900082D19000868
:100060002D1900082D1900082D1900082D19000858
:100070002D1900082D1900082D1900082D19000848
:100080002D1900082D1900082D1900082D19000838
:100090002D1900082D1900082D1900082D19000828
:1000A0002D1900082D1900082D1900082D19000818
:1000B000491600082D190008000000002D1900083D
:1000C0002D19000800000000000000002D19000894
:1000D000000000002D1900082D1900080000000084
:1000E0002D1900082D1900082D1900080000000026
:1000F0000000000000000000000000000000000000
:0C01000000000000000000005FF808F1A3
:10010C0010B5054C237833B9044B13B10448AFF345
:10011C0000800123237010BD380000200000000077
:10012C005C2F000808B5034B1BB103490348AFF320
:10013C00008008BD000000003C0000205C2F00087F
:10014C0080B483B000AF7860094A7B6852F82330E2
:10015C00012B06D1064A7B68002142F823100123AB
:10016C0000E0002318460C37BD4680BC704700BF2A
:10017C005400002080B582B000AF00237B606FE09C
:10018C003B4A7B6852F823203A497B6841F823208C
:10019C00394A7B6852F8232035497B6841F8232083
:1001AC00364A7B6852F8232035497B6831F8133086
:1001BC001946104601F0A0FE034619462E4A7B68EC
:1001CC0042F823102B4A7B6852F8232028497B687D
:1001DC0051F823309A4240D1254A7B6852F82320AB
:1001EC0025497B6851F823309A4236D1254A7B68E1
:1001FC0052F8232020497B6851F823309A4218D0BA
:10020C001D4A7B6852F823201E497B6841F8232045
:10021C00194A7B6852F82330002B1EDC1A4A7B6883
:10022C00642142F82310194A7B68012142F82310FB
:10023C0013E0154A7B6852F823305A1E12497B682A
:10024C0041F82320104A7B6852F82330002B04DC41
:10025C000C4A7B68012142F823107B6801337B60D8
:10026C007B68022B8CDD00BF00BF0837BD4680BD0C
:10027C009C000020B4000020C000002000000020E2
:10028C000C000020A80000201400002054000020C6
:10029C0080B500AF00F0CCFB0020FFF751FF034608
:1002AC00012B0ED1084B1B68084A136001F08AFA27
:1002BC00074B02221A60642001F0AAF8642001F0B6
:1002CC00C3F800BF80BD00BF200000206C000020E0
:1002DC006000002080B500AFA54B1B683C2B00F0E4
:1002EC00DB803C2B00F33481282B59DC002B40F3B2
:1002FC002F81013B272B00F22B8101A252F823F016
:10030C00B50300085D0500085D0500085D050008E3
:10031C005D0500085D0500085D0500085D05000829
:10032C005D0500087B0400085D0500085D050008FC
:10033C005D0500085D0500085D0500085D05000809
:10034C005D0500085D0500085D050008E90300086F
:10035C005D0500085D0500085D0500085D050008E9
:10036C005D0500085D0500085D0500085D050008D9
:10037C005D050008150400085D0500085D05000812
:10038C005D0500085D0500085D0500085D050008B9
:10039C005D0500085D0500085D05000833050008D3
:1003AC00322B00F08E80D3E001F00CFA704B14224B
:1003BC001A60704B1B68704A1360704B1B68704A54
:1003CC0013606C4B1B68184601F022F86B4B1B68D2
:1003DC00184601F039F801F053F8C6E001F062F963
:1003EC00FFF756FF674B1B68012B40F0B380604B47
:1003FC001E221A60644B1B68614A1360624B1B68B7
:10040C00184601F021F8A5E001F070F9FFF740FF64
:10041C005E4B1B68012B18D15A4B1B68012B14D156
:10042C00534B3C221A60554B1B68534A1360514B7B
:10043C001B68534A1360514B1B68184600F0E8FFC9
:10044C004C4B1B68184600F0FFFF4E4B1B68012BF2
:10045C0040F08280464B0A221A60464B1B68484A81
:10046C001360444B1B68184600F0EEFF74E001F07B
:10047C00F5F8FFF70DFF454B1B68012B6ED13C4B7C
:10048C003C221A603D4B1B683B4A13603B4B1B687C
:10049C00184600F0BDFF61E001F04CF9FFF7F8FEE3
:1004AC003A4B1B68012B5BD1314B32221A60364B15
:1004BC001B68314A1360344B1B68184600F0A8FFC8
:1004CC004EE001F05BF9FFF7E3FE304B1B68012BAC
:1004DC0018D12C4B1B68012B14D1254B14221A60FC
:1004EC00244B1B68244A1360244B1B68244A13605A
:1004FC00204B1B68184600F08BFF204B1B681846DE
:10050C0000F0A2FF214B1B68012B2BD1184B28228A
:10051C001A60184B1B68184A1360164B1B68184658
:10052C0000F076FF1EE001F099F8FFF7B1FE154BD5
:10053C001B68012B18D10E4B3C221A600F4B1B6809
:10054C000D4A13600D4B1B68184600F061FF0BE061
:10055C0000BF0AE000BF08E000BF06E000BF04E0F7
:10056C0000BF02E000BF00E000BF00BF80BD00BFC5
:10057C0060000020200000206400002024000020E7
:10058C00680000209400002028000020900000202B
:10059C0080B500AF924B1B68042B00F0B880042B85
:1005AC0000F31481022B02D0032B50D00EE18D4BA3
:1005BC001B68012B0CBF01230023DAB28A4B1B688A
:1005CC00012B0CBF01230023DBB21340DBB2002B49
:1005DC000BD001F01BF900F09DFA4FF4FA7000F00B
:1005EC0017FF4FF4FA7000F02FFF0020FFF7A8FD63
:1005FC000346012B0AD17A4B03221A607B4B1B68F2
:10060C007B4A13607B4B1B68784A13600120FFF711
:10061C0097FD0346012B0FD1754B1B68764A93420D
:10062C0006DC734B1B6803F57A73714A136003E0A5
:10063C006F4B4FF47A721A600220FFF781FD03466C
:10064C00012B40F0C580664B01221A60C0E0654B5F
:10065C001B68012B0CBF01230023DAB2624B1B6811
:10066C00012B0CBF01230023DBB21340DBB2002BA8
:10067C000BD001F00FF900F0B9FA4FF4FA7000F05A
:10068C00C7FE4FF4FA7000F0DFFE0020FFF758FDB4
:10069C000346012B0AD1524B04221A60534B1B68A0
:1006AC00544A1360554B1B68504A13600120FFF7E6
:1006BC0047FD0346012B20D14E4B1B684E4A9342FB
:1006CC0017DC4C4B1A684D4B1B681A44484B1B6883
:1006DC009A4206DA474B1B6803F57A73454A136056
:1006EC000BE0434B1A68454B1B68D31A414A136005
:1006FC0003E0404B4FF47A721A600220FFF720FDA2
:10070C000346012B66D1364B01221A6062E0354B51
:10071C001B68012B0CBF01230023DAB2324B1B6880
:10072C00012B0CBF01230023DBB21340DBB2002BE7
:10073C000BD001F08DF800F0C5FA4FF4FA7000F010
:10074C0067FE4FF4FA7000F07FFE0020FFF7F8FC14
:10075C000346012B09D1224B01221A60234B1B6843
:10076C00264A1360214B00221A600120FFF7E8FC97
:10077C000346012B20D1214B1B681F4A934217DCE7
:10078C001E4B1A681B4B1B681A44194B1B689A4268
:10079C0006DA1A4B1B6803F57A73184A13600BE0E0
:1007AC00134B1A68134B1B68D31A144A136003E0DB
:1007BC00124B4FF47A721A600220FFF7C1FC034609
:1007CC00012B09D1064B01221A6005E000BF04E0A1
:1007DC0000BF02E000BF00E000BF00BF80BD00BF53
:1007EC006000002090000020940000206C0000208D
:1007FC002000002028000020B882010024000020E6
:10080C0080B500AF01F08EF800F014F800F09AF803
:10081C0000F04CF8054801F0E3FF054B01221A608B
:10082C00FFF758FDFFF7B4FEFAE700BFCC0000203D
:10083C006000002080B590B000AF07F118032822AB
:10084C000021184602F07CFB3B1D00221A605A6006
:10085C009A60DA601A610223BB610123BB62102328
:10086C00FB6200237B6307F11803184601F08CFB35
:10087C000346002B01D000F0D5F80F237B6000233A
:10088C00BB600023FB6000233B6100237B613B1DAD
:10089C000021184601F0F8FD0346002B01D000F0B2
:1008AC00C1F800BF4037BD4680BD000080B586B0A2
:1008BC0000AF07F1080300221A605A609A60DA60F0
:1008CC003B4600221A605A601D4B4FF080421A6062
:1008DC001B4B41F63F725A60194B00229A60184B21
:1008EC000922DA60164B00221A61154B00229A611C
:1008FC00134801F025FF0346002B01D000F092F8BD
:10090C004FF48053BB6007F1080319460C4802F002
:10091C00A3F80346002B01D000F084F800233B60C1
:10092C0000237B603B461946054802F07BFA0346E0
:10093C00002B01D000F076F800BF1837BD4680BD03
:10094C00CC00002080B586B000AF07F10803002270
:10095C001A605A609A60DA60294B9B69284A43F006
:10096C0004039361264B9B6903F004037B607B6853
:10097C00234B9B69224A43F008039361204B9B69EC
:10098C0003F008033B603B68002247F6FC711D48EE
:10099C0001F0C9FA002241F67F611B4801F0C3FA4D
:1009AC0047F6FC73BB600123FB6000233B61022311
:1009BC007B6107F108031946124801F023F941F64F
:1009CC007F63BB600123FB6000233B6102237B61DF
:1009DC0007F1080319460C4801F014F94FF4604371
:1009EC00BB600023FB6001233B6107F10803194640
:1009FC00054801F007F900BF1837BD4680BD00BFA0
:100A0C000010024000080140000C014080B582B08B
:100A1C0000AF7860FFF7AEFB00F042FD00BF083777
:100A2C00BD4680BD80B400AF72B600BFFEE70000CB
:100A3C0080B500AF2E4B1B68012B56D12D4B1B687C
:100A4C002D4A82FB03121213DB17D31A2B4A1360A5
:100A5C00284B1B682A4A82FB03129211DB17D11A0E
:100A6C00284B83FB01239A10CB17D21A13469B00F9
:100A7C0013445B00CA1A214B5A60234B1B681E4A55
:100A8C0082FB03121213DB17D31A204A13601E4B7E
:100A9C001B681B4A82FB03129211DB17D11A194BEC
:100AAC0083FB01239A10CB17D21A13469B001344D5
:100ABC005B00CA1A154B5A60154B1B68184600F0A0
:100ACC006DF9134B1B68184600F0A0F9104B1B680E
:100ADC0001330F4A13600E4B1B680222934202DB58
:100AEC000B4B00221A6000F0CBFC00BF80BD00BF96
:100AFC009800002064000020AD8BDB68740000209F
:100B0C00D34D621067666666680000207C0000208A
:100B1C007000002080B500AF2B4B1B68012B50D10F
:100B2C002A4B1B682A4A82FB03129210DB17D31A3A
:100B3C00284A1360254B1968254B83FB01239A1017
:100B4C00CB17D21A13469B0013445B00CA1A214BD5
:100B5C005A60214B1B68214A82FB03121213DB17CC
:100B6C00D31A1F4A13601C4B1B681E4A82FB0312CC
:100B7C009211DB17D11A164B83FB01239A10CB175A
:100B8C00D21A13469B0013445B00CA1A144B5A60CA
:100B9C00154B1B68184600F001F9134B1B681846DF
:100BAC0000F034F9104B1B6801330F4A13600E4BE5
:100BBC001B680222934202DB0B4B00221A6000F0EE
:100BCC005FFC00BF80BD00BF9800002060000020CB
:100BDC00676666667400002020000020AD8BDB6821
:100BEC007C000020D34D62107000002080B500AF57
:100BFC002B4B1B68012B50D12A4B1B682A4A82FBBA
:100C0C0003129210DB17D31A284A1360254B19686C
:100C1C00254B83FB01239A10CB17D21A13469B004A
:100C2C0013445B00CA1A214B5A60214B1B68214AA2
:100C3C0082FB03121213DB17D31A1F4A13601C4BCF
:100C4C001B681E4A82FB03129211DB17D11A164B3A
:100C5C0083FB01239A10CB17D21A13469B00134423
:100C6C005B00CA1A144B5A60154B1B68184600F0EF
:100C7C0095F8134B1B68184600F0C8F8104B1B680E
:100C8C0001330F4A13600E4B1B680222934202DBA6
:100C9C000B4B00221A6000F0F3FB00BF80BD00BFBD
:100CAC0098000020600000206766666674000020D3
:100CBC0028000020AD8BDB687C000020D34D621037
:100CCC007000002080B500AF2B4B1B68012B50D15E
:100CDC002A4B1B682A4A82FB03129210DB17D31A89
:100CEC00284A1360254B1968254B83FB01239A1066
:100CFC00CB17D21A13469B0013445B00CA1A214B24
:100D0C005A60214B1B68214A82FB03121213DB171A
:100D1C00D31A1F4A13601C4B1B681E4A82FB03121A
:100D2C009211DB17D11A164B83FB01239A10CB17A8
:100D3C00D21A13469B0013445B00CA1A144B5A6018
:100D4C00154B1B68184600F029F8134B1B68184606
:100D5C0000F05CF8104B1B6801330F4A13600E4B0C
:100D6C001B680222934202DB0B4B00221A6000F03C
:100D7C0087FB00BF80BD00BF9800002060000020F2
:100D8C00676666667400002024000020AD8BDB686B
:100D9C007C000020D34D62107000002080B582B022
:100DAC0000AF78607B68002B03D07B68012B12D0DE
:100DBC0023E000224FF40071124801F0B4F8012234
:100DCC004FF480610F4801F0AEF80F4B1B681846CA
:100DDC0000F054F811E000224FF48061094801F052
:100DEC00A2F801224FF40071064801F09CF8064B62
:100DFC005B68184600F042F800BF00BF0837BD46DC
:100E0C0080BD00BF000C01407400002080B582B092
:100E1C0000AF78607B68002B03D07B68012B12D06D
:100E2C0023E000224FF40061124801F07CF801220B
:100E3C004FF480510F4801F076F80F4B1B681846A1
:100E4C0000F064F911E001224FF40061094801F04F
:100E5C006AF800224FF48051064801F064F8064B02
:100E6C005B68184600F052F900BF00BF0837BD465A
:100E7C0080BD00BF000C01407C00002080B582B01A
:100E8C0000AF7860012201219F4801F04CF801224B
:100E9C0002219D4801F047F8012204219A4801F0F3
:100EAC0042F801220821984801F03DF80122102156
:100EBC00954801F038F801222021934801F033F8CD
:100ECC0001224021904801F02EF87B68092B00F29A
:100EDC00168101A252F823F00D0F00084B0F0008E9
:100EEC00610F0008950F0008C90F0008F30F0008E8
:100EFC00271000086510000885100008CD100008A8
:100F0C0000220121804801F00EF8002202217E48C7
:100F1C0001F009F8002204217B4801F004F80022BA
:100F2C000821794800F0FFFF00221021764800F0DC
:100F3C00FAFF00222021744800F0F5FFE0E00022C7
:100F4C000221714800F0EFFF002204216E4800F0EE
:100F5C00EAFFD5E0002201216B4800F0E4FF0022FB
:100F6C000221694800F0DFFF00220821664800F0EA
:100F7C00DAFF00221021644800F0D5FF0022402146
:100F8C00614800F0D0FFBBE0002201215E4800F078
:100F9C00CAFF002202215C4800F0C5FF0022042198
:100FAC00594800F0C0FF00220821574800F0BBFF51
:100FBC0000224021544800F0B6FFA1E0002202219B
:100FCC00514800F0B0FF002204214F4800F0ABFF65
:100FDC00002220214C4800F0A6FF002240214A4864
:100FEC0000F0A1FF8CE000220121474800F09BFF9C
:100FFC0000220421444800F096FF002208214248B8
:10100C0000F091FF002220213F4800F08CFF0022CD
:10101C0040213D4800F087FF72E0002201213A4850
:10102C0000F081FF00220421374800F07CFF0022F1
:10103C000821354800F077FF00221021324800F0DB
:10104C0072FF00222021304800F06DFF0022402169
:10105C002D4800F068FF53E0002201212A4800F0DF
:10106C0062FF00220221284800F05DFF00220421CB
:10107C00254800F058FF43E000220121224800F0EF
:10108C0052FF00220221204800F04DFF00220421D3
:10109C001D4800F048FF002208211B4800F043FFC8
:1010AC0000221021184800F03EFF00222021164893
:1010BC0000F039FF00224021134800F034FF1FE0FC
:1010CC0000220121104800F02EFF002202210E48C0
:1010DC0000F029FF002204210B4800F024FF00221D
:1010EC000821094800F01FFF00222021064800F0CB
:1010FC001AFF00224021044800F015FF00E000BF59
:10110C0000BF0837BD4680BD000C014080B582B0E1
:10111C0000AF786001224FF48071BC4800F003FFEF
:10112C0001224FF40071B94800F0FDFE01224FF48A
:10113C008061B64800F0F7FE01224FF40061B3481D
:10114C0000F0F1FE01224FF48051B04800F0EBFEAC
:10115C0001224FF40051AD4800F0E5FE01224FF49E
:10116C008041AA4800F0DFFE7B68092B00F2488121
:10117C0001A252F823F000BFAD110008F7110008CE
:10118C00111200084F1200088D120008BF1200083F
:10119C00FD120008471300086D130008C313000864
:1011AC0000224FF48071994800F0BDFE00224FF4EC
:1011BC000071964800F0B7FE00224FF4806193480E
:1011CC0000F0B1FE00224FF40061904800F0ABFE3D
:1011DC0000224FF480518D4800F0A5FE00224FF400
:1011EC0000518A4800F09FFE0BE100224FF4007181
:1011FC00864800F098FE00224FF48061834800F08E
:10120C0092FEFEE000224FF48071804800F08BFECD
:10121C0000224FF400717D4800F085FE00224FF44F
:10122C0000617A4800F07FFE00224FF4805177482D
:10123C0000F079FE00224FF48041744800F073FEF8
:10124C00DFE000224FF48071704800F06CFE002249
:10125C004FF400716D4800F066FE00224FF480617F
:10126C006A4800F060FE00224FF40061674800F00D
:10127C005AFE00224FF48041644800F054FEC0E056
:10128C0000224FF40071614800F04DFE00224FF433
:10129C0080615E4800F047FE00224FF400515B482D
:1012AC0000F041FE00224FF48041584800F03BFE14
:1012BC00A7E000224FF48071544800F034FE002265
:1012CC004FF48061514800F02EFE00224FF4006173
:1012DC004E4800F028FE00224FF400514B4800F01D
:1012EC0022FE00224FF48041484800F01CFE88E0AA
:1012FC0000224FF48071454800F015FE00224FF497
:10130C008061424800F00FFE00224FF400613F481C
:10131C0000F009FE00224FF480513C4800F003FE1F
:10132C0000224FF40051394800F0FDFD00224FF42B
:10133C008041364800F0F7FD63E000224FF48071E5
:10134C00324800F0F0FD00224FF400712F4800F0FD
:10135C00EAFD00224FF480612C4800F0E4FD50E0DF
:10136C0000224FF48071294800F0DDFD00224FF47B
:10137C000071264800F0D7FD00224FF4806123480D
:10138C0000F0D1FD00224FF40061204800F0CBFDAD
:10139C0000224FF480511D4800F0C5FD00224FF48F
:1013AC0000511A4800F0BFFD00224FF4804117484D
:1013BC0000F0B9FD25E000224FF48071134800F0D5
:1013CC00B2FD00224FF40071104800F0ACFD002279
:1013DC004FF480610D4800F0A6FD00224FF400612F
:1013EC000A4800F0A0FD00224FF40051074800F01D
:1013FC009AFD00224FF48041044800F094FD00E077
:10140C0000BF00BF0837BD4680BD00BF00080140CB
:10141C0080B483B000AF78607B68084A82FB03120B
:10142C009210DB17D31A064A1360064B00221A607F
:10143C0000BF0C37BD4680BC704700BF6766666650
:10144C00840000209000002080B483B000AF78604E
:10145C007B68084A82FB03129210DB17D31A064AE8
:10146C001360064B00221A6000BF0C37BD4680BCCF
:10147C00704700BF676666668800002094000020F5
:10148C0080B400AF044B32221A60044B00221A6065
:10149C0000BFBD4680BC70478C0000209800002027
:1014AC0080B400AF1E4B1B68002B0BDD1C4B1B6864
:1014BC00013B1B4A13601A4B1B68002B02DC194BB7
:1014CC0001221A60184B1B68002B0BDD164B1B6896
:1014DC00013B154A1360144B1B68002B02DC134BA9
:1014EC0001221A60124B1B68002B15DD104B1B6878
:1014FC00013B0F4A13600F4B1B680A3B0D4A1360EC
:10150C000D4B1B680A3B0C4A1360094B1B68002BE4
:10151C0002DC0A4B01221A6000BFBD4680BC70473A
:10152C0084000020900000208800002094000020FF
:10153C008C0000206400002068000020980000202F
:10154C0080B485B000AF154B9B69144A43F001037E
:10155C009361124B9B6903F00103BB60BB680F4B9B
:10156C00DB690E4A43F08053D3610C4BDB6903F00B
:10157C0080537B607B680A4B5B68FB60FB6823F0E5
:10158C00E063FB60FB6843F08063FB60044AFB682C
:10159C00536000BF1437BD4680BC7047001002403A
:1015AC000000014080B584B000AF78607B681B6898
:1015BC00B3F1804F13D10C4BDB690B4A43F00103A1
:1015CC00D361094BDB6903F00103FB60FB6800226C
:1015DC0000211C2000F0DFFA1C2000F0F8FA00BFFC
:1015EC001037BD4680BD00BF0010024080B400AF74
:1015FC00FEE780B400AFFEE780B400AFFEE780B436
:10160C0000AFFEE780B400AFFEE780B400AF00BFD0
:10161C00BD4680BC704780B400AF00BFBD4680BCE7
:10162C00704780B400AF00BFBD4680BC704780B52A
:10163C0000AF00F0BDF900BF80BD000080B500AF69
:10164C00024801F019F900BF80BD00BFCC0000209A
:10165C0080B400AF00BFBD4680BC704780B500AF02
:10166C00012220210E4800F05EFC002240210C4893
:10167C0000F059FC00228021094800F054FC0122A2
:10168C000421074800F04FFC00220821044800F018
:10169C004AFC00221021024800F045FC00BF80BD2E
:1016AC000008014080B500AF012220210E4800F057
:1016BC003AFC002240210C4800F035FC002280212D
:1016CC00094800F030FC00220421074800F02BFCF4
:1016DC0000220821044800F026FC012210210248B7
:1016EC0000F021FC00BF80BD0008014080B500AFB8
:1016FC00012220210E4800F016FC002240210C484B
:10170C0000F011FC00228021094800F00CFC0022A2
:10171C000421074800F007FC01220821044800F0CE
:10172C0002FC00221021024800F0FDFB00BF80BD2E
:10173C000008014080B500AF002220210E4800F0C7
:10174C00F2FB002240210C4800F0EDFB012280212D
:10175C00094800F0E8FB01220421074800F0E3FBF4
:10176C0000220821044800F0DEFB00221021024870
:10177C0000F0D9FB00BF80BD0008014080B500AF70
:10178C00002220210E4800F0CEFB012240210C4803
:10179C0000F0C9FB00228021094800F0C4FB0122A3
:1017AC000421074800F0BFFB00220821044800F088
:1017BC00BAFB00221021024800F0B5FB00BF80BD2F
:1017CC000008014080B500AF002220210E4800F037
:1017DC00AAFB002240210C4800F0A5FB002280212E
:1017EC00094800F0A0FB00220421074800F09BFBF5
:1017FC0000220821044800F096FB00221021024828
:10180C0000F091FB00BF80BD0008014080B500AF27
:10181C0020210E4800F09FFB04210C4800F09BFB9C
:10182C0000224021094800F07EFB0022802107485D
:10183C0000F079FB00220821044800F074FB002220
:10184C001021024800F06FFB00BF80BD0008014072
:10185C0080B500AF80210E4800F07DFB10210C48B4
:10186C0000F079FB00224021094800F05CFB0022CB
:10187C002021074800F057FB00220821044800F003
:10188C0052FB00220421024800F04DFB00BF80BD3A
:10189C000008014080B500AF40210E4800F05BFB12
:1018AC0008210C4800F057FB00228021094800F069
:1018BC003AFB00222021074800F035FB00221021C2
:1018CC00044800F030FB00220421024800F02BFBFE
:1018DC0000BF80BD00080140FFF7BAFE0B480C4961
:1018EC000C4A002302E0D458C4500433C4188C4270
:1018FC00F9D3094A094C002301E013600432A242D7
:10190C00FBD301F0F9FAFEF77BFF704700000020D3
:10191C0038000020A02F00083800002018010020FB
:10192C00FEE7000080B500AF084B1B68074A43F088
:10193C0010031360032000F023F90F2000F008F8C7
:10194C00FFF7FEFD0023184680BD00BF00200240BB
:10195C0080B582B000AF7860124B1A68124B1B78BE
:10196C0019464FF47A73B3FBF1F3B2FBF3F3184659
:10197C0000F03BF90346002B01D001230EE07B68FD
:10198C000F2B0AD8002279684FF0FF3000F003F9D2
:10199C00064A7B681360002300E0012318460837D1
:1019AC00BD4680BD2C0000203400002030000020FB
:1019BC0080B400AF054B1B781A46054B1B681344CB
:1019CC00034A136000BFBD4680BC70473400002042
:1019DC001401002080B400AF024B1B681846BD46B2
:1019EC0080BC70471401002080B485B000AF7860D3
:1019FC007B6803F00703FB600C4BDB68BB60BA68C9
:101A0C004FF6FF031340BB60FB681A02BB6813431D
:101A1C0043F0BF6343F40033BB60044ABB68D3603C
:101A2C0000BF1437BD4680BC704700BF00ED00E01E
:101A3C0080B400AF044BDB681B0A03F007031846A5
:101A4C00BD4680BC704700BF00ED00E080B483B0A1
:101A5C0000AF0346FB7197F90730002B0BDBFB79CA
:101A6C0003F01F02064997F907305B09012000FAC1
:101A7C0002F241F8232000BF0C37BD4680BC7047F2
:101A8C0000E100E080B483B000AF03463960FB7125
:101A9C0097F90730002B0ADB3B68DAB20C4997F94F
:101AAC0007301201D2B20B4483F800230AE03B68E2
:101ABC00DAB20849FB7903F00F03043B1201D2B2EE
:101ACC000B441A7600BF0C37BD4680BC704700BF74
:101ADC0000E100E000ED00E080B489B000AFF860F8
:101AEC00B9607A60FB6803F00703FB61FB69C3F123
:101AFC000703042B28BF0423BB61FB690433062BAB
:101B0C0002D9FB69033B00E000237B614FF0FF32FD
:101B1C00BB6902FA03F3DA43BB681A407B699A404B
:101B2C004FF0FF317B6901FA03F3D9437B680B401B
:101B3C00134318462437BD4680BC704780B582B02D
:101B4C0000AF78607B68013BB3F1807F01D3012348
:101B5C000FE00A4A7B68013B53600F214FF0FF30C6
:101B6C00FFF790FF054B00229A60044B07221A6086
:101B7C00002318460837BD4680BD00BF10E000E0CA
:101B8C0080B582B000AF78607868FFF72DFF00BF9A
:101B9C000837BD4680BD80B586B000AF0346B9603E
:101BAC007A60FB7300237B61FFF742FF78617A68F0
:101BBC00B9687869FFF790FF024697F90F30114624
:101BCC001846FFF75FFF00BF1837BD4680BD80B5D4
:101BDC0082B000AF0346FB7197F907301846FFF748
:101BEC0035FF00BF0837BD4680BD80B582B000AF61
:101BFC0078607868FFF7A2FF034618460837BD46A1
:101C0C0080BD000080B48BB000AF786039600023D9
:101C1C007B6200233B6248E101227B6A02FA03F3F8
:101C2C00FB613B681B68FA691340BB61BA69FB69CD
:101C3C009A4240F037813B685B68A34A93425ED07E
:101C4C00A14A934275D8A14A934258D09F4A9342D5
:101C5C006FD89F4A934252D09D4A934269D89D4A6D
:101C6C0093424CD09B4A934263D89B4A934246D0B2
:101C7C00994A93425DD8122B2AD8122B59D801A21B
:101C8C0052F823F00B1D0008E51C0008F71C000897
:101C9C00391D00083F1D00083F1D00083F1D0008AE
:101CAC003F1D00083F1D00083F1D00083F1D000898
:101CBC003F1D00083F1D00083F1D00083F1D000888
:101CCC003F1D00083F1D0008ED1C0008011D000809
:101CDC00824A934213D02CE03B68DB683B6229E0DC
:101CEC003B68DB6804333B6224E03B68DB68083309
:101CFC003B621FE03B68DB680C333B621AE03B68DD
:101D0C009B68002B02D104233B6213E03B689B6869
:101D1C00012B05D108233B627B68FA691A6109E043
:101D2C0008233B627B68FA695A6103E000233B623B
:101D3C0000E000BFBB69FF2B01D87B6801E07B682A
:101D4C0004337B61BB69FF2B02D87B6A9B0002E0EA
:101D5C007B6A083B9B003B617B691A680F213B69DE
:101D6C0001FA03F3DB431A40396A3B6901FA03F3C6
:101D7C001A437B691A603B685B6803F08053002B45
:101D8C0000F09080564B9B69554A43F001039361D8
:101D9C00534B9B6903F00103BB60BB68514A7B6AE0
:101DAC009B08023352F82330FB607B6A03F0030379
:101DBC009B000F2202FA03F3DB43FA681340FB602B
:101DCC007B68494A93420DD07B68484A934207D0BE
:101DDC007B68474A934201D1022304E0032302E0CB
:101DEC00012300E000237A6A02F003029200934080
:101DFC00FA681343FB603B497B6A9B080233FA6821
:101E0C0041F823203B685B6803F48013002B06D059
:101E1C00384B9A683749BB6913438B6006E0354BE6
:101E2C009A68BB69DB43334913408B603B685B6842
:101E3C0003F40013002B06D02E4BDA682D49BB6936
:101E4C001343CB6006E02B4BDA68BB69DB432949B3
:101E5C001340CB603B685B6803F40033002B06D067
:101E6C00244B5A682349BB6913434B6006E0214B52
:101E7C005A68BB69DB431F4913404B603B685B6886
:101E8C0003F48033002B06D01A4B1A681949BB692E
:101E9C0013430B6006E0174B1A68BB69DB4315490B
:101EAC0013400B607B6A01337B623B681A687B6A68
:101EBC0022FA03F3002B7FF4AFAE00BF00BF2C3728
:101ECC00BD4680BC704700BF0000321000003110CE
:101EDC000000221000002110000012100000111050
:101EEC00001002400000014000080140000C0140BD
:101EFC00001001400004014080B485B000AF786050
:101F0C000B467B807B689A687B881340002B02D041
:101F1C000123FB7301E00023FB73FB7B1846143792
:101F2C00BD4680BC704780B483B000AF78600B4670
:101F3C007B8013467B707B78002B03D07A887B6880
:101F4C001A6103E07B881A047B681A6100BF0C37A6
:101F5C00BD4680BC704780B485B000AF78600B463E
:101F6C007B807B68DB68FB607A88FB6813401A0413
:101F7C00FB68D9437B880B401A437B681A6100BF0E
:101F8C001437BD4680BC704780B586B000AF786012
:101F9C007B68002B01D101236CE27B681B6803F08A
:101FAC000103002B00F08780924B5B6803F00C035D
:101FBC00042B0CD08F4B5B6803F00C03082B12D155
:101FCC008C4B5B6803F48033B3F5803F0BD1894BAA
:101FDC001B6803F40033002B6CD07B685B68002B10
:101FEC0068D1012346E27B685B68B3F5803F06D17C
:101FFC00804B1B687F4A43F4803313602EE07B6870
:10200C005B68002B0CD17B4B1B687A4A23F4803322
:10201C001360784B1B68774A23F4802313601DE010
:10202C007B685B68B3F5A02F0CD1724B1B68714AAF
:10203C0043F4802313606F4B1B686E4A43F4803368
:10204C0013600BE06B4B1B686A4A23F480331360FC
:10205C00684B1B68674A23F4802313607B685B68BA
:10206C00002B13D0FFF7B6FC386108E0FFF7B2FC89
:10207C0002463B69D31A642B01D90323FAE15D4B69
:10208C001B6803F40033002BF0D014E0FFF7A2FC24
:10209C00386108E0FFF79EFC02463B69D31A642BBB
:1020AC0001D90323E6E1534B1B6803F40033002BE7
:1020BC00F0D100E000BF7B681B6803F00203002B2B
:1020CC0063D04C4B5B6803F00C03002B0BD0494BDB
:1020DC005B6803F00C03082B1CD1464B5B6803F4C4
:1020EC008033002B16D1434B1B6803F00203002BEB
:1020FC0005D07B681B69012B01D00123BAE13D4B54
:10210C001B6823F0F8027B685B69DB0039491343D9
:10211C000B603AE07B681B69002B20D0364B012208
:10212C001A60FFF757FC386108E0FFF753FC0246D2
:10213C003B69D31A022B01D903239BE12D4B1B685E
:10214C0003F00203002BF0D02A4B1B6823F0F8029B
:10215C007B685B69DB00274913430B6015E0264B5A
:10216C0000221A60FFF736FC386108E0FFF732FCFA
:10217C0002463B69D31A022B01D903237AE11D4B8A
:10218C001B6803F00203002BF0D17B681B6803F083
:10219C000803002B3AD07B689B69002B19D0174B96
:1021AC0001221A60FFF716FC386108E0FFF712FCF9
:1021BC0002463B69D31A022B01D903235AE10D4B7A
:1021CC005B6A03F00203002BF0D0012000F09AFAB6
:1021DC001CE00A4B00221A60FFF7FCFB38610FE091
:1021EC00FFF7F8FB02463B69D31A022B08D90323ED
:1021FC0040E100BF00100240000042428004424215
:10220C009E4B5B6A03F00203002BE9D17B681B68D1
:10221C0003F00403002B00F0A6800023FB75974B02
:10222C00DB6903F08053002B0DD1944BDB69934A8F
:10223C0043F08053D361914BDB6903F08053BB6057
:10224C00BB680123FB758E4B1B6803F48073002B5A
:10225C0018D18B4B1B688A4A43F480731360FFF7C9
:10226C00B9FB386108E0FFF7B5FB02463B69D31AAE
:10227C00642B01D90323FDE0814B1B6803F48073AD
:10228C00002BF0D07B68DB68012B06D17B4B1B6AE3
:10229C007A4A43F0010313622DE07B68DB68002B64
:1022AC000CD1764B1B6A754A23F001031362734BF6
:1022BC001B6A724A23F0040313621CE07B68DB6820
:1022CC00052B0CD16D4B1B6A6C4A43F00403136253
:1022DC006A4B1B6A694A43F0010313620BE0674BBC
:1022EC001B6A664A23F001031362644B1B6A634A40
:1022FC0023F0040313627B68DB68002B15D0FFF717
:10230C0069FB38610AE0FFF765FB02463B69D31AAB
:10231C0041F28832934201D90323ABE0574B1B6A3D
:10232C0003F00203002BEED014E0FFF753FB3861EF
:10233C000AE0FFF74FFB02463B69D31A41F28832A1
:10234C00934201D9032395E04C4B1B6A03F0020323
:10235C00002BEED1FB7D012B05D1484BDB69474AA5
:10236C0023F08053D3617B68DB69002B00F0818004
:10237C00424B5B6803F00C03082B61D07B68DB6974
:10238C00022B46D13F4B00221A60FFF723FB38612A
:10239C0008E0FFF71FFB02463B69D31A022B01D959
:1023AC00032367E0354B1B6803F00073002BF0D15F
:1023BC007B681B6AB3F5803F08D1304B5B6823F414
:1023CC0000327B689B682D4913434B602B4B5B6839
:1023DC0023F474127B68196A7B685B6A0B43274988
:1023EC0013434B60274B01221A60FFF7F3FA386155
:1023FC0008E0FFF7EFFA02463B69D31A022B01D92A
:10240C00032337E01D4B1B6803F00073002BF0D047
:10241C002FE01C4B00221A60FFF7DCFA386108E051
:10242C00FFF7D8FA02463B69D31A022B01D90323D2
:10243C0020E0124B1B6803F00073002BF0D118E066
:10244C007B68DB69012B01D1012313E00B4B5B682B
:10245C00FB60FB6803F480327B681B6A9A4206D1EE
:10246C00FB6803F470127B685B6A9A4201D001230B
:10247C0000E0002318461837BD4680BD001002400E
:10248C00007000406000424280B584B000AF7860BC
:10249C0039607B68002B01D10123D0E06A4B1B68AB
:1024AC0003F007033A689A4210D9674B1B6823F074
:1024BC00070265493B6813430B60634B1B6803F0D1
:1024CC0007033A689A4201D00123B8E07B681B6885
:1024DC0003F00203002B20D07B681B6803F004037D
:1024EC00002B05D0594B5B68584A43F4E0635360AA
:1024FC007B681B6803F00803002B05D0534B5B680B
:10250C00524A43F460535360504B5B6823F0F00223
:10251C007B689B684D4913434B607B681B6803F0D9
:10252C000103002B40D07B685B68012B07D1474B24
:10253C001B6803F40033002B15D101237FE07B686B
:10254C005B68022B07D1414B1B6803F00073002B17
:10255C0009D1012373E03D4B1B6803F00203002BF0
:10256C0001D101236BE0394B5B6823F003027B68DC
:10257C005B68364913434B60FFF72CFAF8600AE0AE
:10258C00FFF728FA0246FB68D31A41F288329342CD
:10259C0001D9032353E02D4B5B6803F00C027B68DD
:1025AC005B689B009A42EBD1274B1B6803F0070337
:1025BC003A689A4210D2244B1B6823F00702224936
:1025CC003B6813430B60204B1B6803F007033A680E
:1025DC009A4201D0012332E07B681B6803F00403AC
:1025EC00002B08D0194B5B6823F4E0627B68DB6836
:1025FC00164913434B607B681B6803F00803002BE0
:10260C0009D0124B5B6823F460527B681B69DB00BA
:10261C000E4913434B6000F021F802460B4B5B68EC
:10262C001B0903F00F030A49CB5C22FA03F3094A96
:10263C001360094B1B681846FFF78AF900231846EC
:10264C001037BD4680BD00BF002002400010024084
:10265C00742F00082C0000203000002080B487B0BC
:10266C0000AF0023FB600023BB6000237B610023D1
:10267C007B6000233B611E4B5B68FB60FB6803F0D7
:10268C000C03042B02D0082B03D027E0194B3B6121
:10269C0027E0FB689B0C03F00F03174AD35C7B60AD
:1026AC00FB6803F48033002B10D0114B5B685B0C80
:1026BC0003F00103114AD35CBB607B680D4A02FB3B
:1026CC0003F2BB68B2FBF3F37B6104E07B680C4A5A
:1026DC0002FB03F37B617B693B6102E0054B3B61D1
:1026EC0000BF3B6918461C37BD4680BC704700BF15
:1026FC000010024000127A00842F0008942F00086A
:10270C0000093D0080B485B000AF78600A4B1B68AF
:10271C000A4AA2FB03235B0A7A6802FB03F3FB6001
:10272C0000BFFB685A1EFA60002BF9D100BF00BF36
:10273C001437BD4680BC70472C000020D34D62106E
:10274C0080B582B000AF78607B68002B01D101238B
:10275C0041E07B6893F83D30DBB2002B06D17B68FF
:10276C00002283F83C207868FEF71CFF7B6802226D
:10277C0083F83D207B681A687B6804331946104641
:10278C0000F056FA7B68012283F846207B68012210
:10279C0083F83E207B68012283F83F207B6801226E
:1027AC0083F840207B68012283F841207B6801225A
:1027BC0083F842207B68012283F843207B68012246
:1027CC0083F844207B68012283F845207B68012232
:1027DC0083F83D20002318460837BD4680BD000015
:1027EC0080B485B000AF78607B6893F83D30DBB285
:1027FC00012B01D0012335E07B68022283F83D20B8
:10280C007B681B68DA687B681B6842F00102DA603F
:10281C007B681B68164A934209D07B681B68B3F12E
:10282C00804F04D07B681B68124A934211D17B689D
:10283C001B689B6803F00703FB60FB68062B10D03A
:10284C007B681B681A687B681B6842F001021A607F
:10285C0007E07B681B681A687B681B6842F0010202
:10286C001A60002318461437BD4680BC704700BF61
:10287C00002C01400004004080B584B000AF7860AB
:10288C007B681B68DB68FB607B681B681B69BB6033
:10289C00BB6803F00203002B20D0FB6803F002039B
:1028AC00002B1BD07B681B686FF002021A617B68DF
:1028BC0001221A777B681B689B6903F00303002BCA
:1028CC0003D0786800F098F905E0786800F08BF98F
:1028DC00786800F09AF97B6800221A77BB6803F0DD
:1028EC000403002B20D0FB6803F00403002B1BD047
:1028FC007B681B686FF004021A617B6802221A77EE
:10290C007B681B689B6903F44073002B03D07868C9
:10291C0000F072F905E0786800F065F9786800F06D
:10292C0074F97B6800221A77BB6803F00803002B4C
:10293C0020D0FB6803F00803002B1BD07B681B68BE
:10294C006FF008021A617B6804221A777B681B6897
:10295C00DB6903F00303002B03D0786800F04CF91B
:10296C0005E0786800F03FF9786800F04EF97B6874
:10297C0000221A77BB6803F01003002B20D0FB68F1
:10298C0003F01003002B1BD07B681B686FF0100248
:10299C001A617B6808221A777B681B68DB6903F471
:1029AC004073002B03D0786800F026F905E07868B6
:1029BC0000F019F9786800F028F97B6800221A7782
:1029CC00BB6803F00103002B0CD0FB6803F0010380
:1029DC00002B07D07B681B686FF001021A617868C6
:1029EC00FEF714F8BB6803F08003002B0CD0FB68D7
:1029FC0003F08003002B07D07B681B686FF080020C
:102A0C001A61786800F06FFABB6803F04003002B82
:102A1C000CD0FB6803F04003002B07D07B681B68CD
:102A2C006FF040021A61786800F0F8F8BB6803F0A8
:102A3C002003002B0CD0FB6803F02003002B07D0E5
:102A4C007B681B686FF020021A61786800F042FA0C
:102A5C0000BF1037BD4680BD80B584B000AF786034
:102A6C0039600023FB737B6893F83C30012B01D158
:102A7C000223B4E07B68012283F83C207B680222AD
:102A8C0083F83D207B681B689B68BB60BB6823F0A8
:102A9C007703BB60BB6823F47F43BB607B681B6818
:102AAC00BA689A603B681B68B3F5005F3ED0B3F51B
:102ABC00005F00F28780B3F5805F00F08680B3F58D
:102ACC00805F7FD8702B1AD0702B7BD8602B50D0A6
:102ADC00602B77D8502B3CD0502B73D8402B58D030
:102AEC00402B6FD8302B64D0302B6BD8202B60D080
:102AFC00202B67D8002B5CD0102B5AD062E07B685F
:102B0C0018683B6899683B685A683B68DB6800F05A
:102B1C006AF97B681B689B68BB60BB6843F07703F2
:102B2C00BB607B681B68BA689A604FE07B6818686A
:102B3C003B6899683B685A683B68DB6800F053F95E
:102B4C007B681B689A687B681B6842F480429A60B9
:102B5C003CE07B6818683B6859683B68DB681A4640
:102B6C0000F0CAF87B681B685021184600F021F968
:102B7C002CE07B6818683B6859683B68DB681A4630
:102B8C0000F0E8F87B681B686021184600F011F92A
:102B9C001CE07B6818683B6859683B68DB681A4620
:102BAC0000F0AAF87B681B684021184600F001F978
:102BBC000CE07B681A683B681B681946104600F0ED
:102BCC00F8F803E00123FB7300E000BF7B680122EF
:102BDC0083F83D207B68002283F83C20FB7B184661
:102BEC001037BD4680BD80B483B000AF786000BFA5
:102BFC000C37BD4680BC704780B483B000AF7860A2
:102C0C0000BF0C37BD4680BC704780B483B000AFAA
:102C1C00786000BF0C37BD4680BC704780B483B071
:102C2C0000AF786000BF0C37BD4680BC7047000019
:102C3C0080B485B000AF786039607B681B68FB603E
:102C4C007B682B4A934207D07B68B3F1804F03D04B
:102C5C007B68284A934208D1FB6823F07003FB6021
:102C6C003B685B68FA681343FB607B68204A9342BD
:102C7C0007D07B68B3F1804F03D07B681D4A934229
:102C8C0008D1FB6823F44073FB603B68DB68FA688F
:102C9C001343FB60FB6823F080023B685B691343C2
:102CAC00FB607B68FA681A603B689A687B68DA623A
:102CBC003B681A687B689A627B680D4A934203D121
:102CCC003B681A697B681A637B6801225A617B68CE
:102CDC001B6903F00103002B05D07B681B6923F0F3
:102CEC0001027B681A6100BF1437BD4680BC704777
:102CFC00002C01400004004080B487B000AFF860A5
:102D0C00B9607A60FB681B6A7B61FB681B6A23F005
:102D1C000102FB681A62FB689B693B613B6923F00B
:102D2C00F0033B617B681B013A6913433B617B6990
:102D3C0023F00A037B617A69BB6813437B61FB68F0
:102D4C003A699A61FB687A691A6200BF1C37BD4602
:102D5C0080BC704780B487B000AFF860B9607A600F
:102D6C00FB681B6A7B61FB681B6A23F01002FB6823
:102D7C001A62FB689B693B613B6923F470433B61BE
:102D8C007B681B033A6913433B617B6923F0A00307
:102D9C007B61BB681B017A6913437B61FB683A69F1
:102DAC009A61FB687A691A6200BF1C37BD4680BC09
:102DBC00704780B485B000AF786039607B689B68E1
:102DCC00FB60FB6823F07003FB603A68FB681343FD
:102DDC0043F00703FB607B68FA689A6000BF143706
:102DEC00BD4680BC704780B487B000AFF860B96056
:102DFC007A603B60FB689B687B617B6923F47F4353
:102E0C007B613B681A027B681A43BB6813437A697F
:102E1C0013437B61FB687A699A6000BF1C37BD461F
:102E2C0080BC704780B485B000AF786039607B6837
:102E3C0093F83C30012B01D1022341E07B68012245
:102E4C0083F83C207B68022283F83D207B681B685A
:102E5C005B68FB607B681B689B68BB60FB6823F04E
:102E6C007003FB603B681B68FA681343FB607B686C
:102E7C001B68FA685A607B681B68144A934209D035
:102E8C007B681B68B3F1804F04D07B681B68104AC9
:102E9C0093420CD1BB6823F08003BB603B685B683A
:102EAC00BA681343BB607B681B68BA689A607B681E
:102EBC00012283F83D207B68002283F83C2000230C
:102ECC0018461437BD4680BC704700BF002C01402B
:102EDC000004004080B483B000AF786000BF0C37B2
:102EEC00BD4680BC704780B483B000AF786000BF33
:102EFC000C37BD4680BC704770B500260C4D0D4C90
:102F0C00641BA410A64209D100F022F800260A4D39
:102F1C000A4C641BA410A64205D170BD55F8043BA5
:102F2C0098470136EEE755F8043B98470136F2E72F
:102F3C00982F0008982F0008982F00089C2F000845
:102F4C0003460244934200D1704703F8011BF9E792
:102F5C00F8B500BFF8BC08BC9E467047F8B500BF7A
:082F6C00F8BC08BC9E4670474A
:102F74000000000000000000010203040607080925
:102F840002030405060708090A0B0C0D0E0F1010A6
:042F94000102000036
:042F980031010008FB
:042F9C000D0100081B
:102FA000000C0140000C0140000C014000200040DA
:102FB0000080000064000000640000006400000065
:102FC000983A000088130000D007000000127A0031
:082FD0001000000001000000E8
:04000005080018E5F2
:00000001FF
